:020000040000FA
:10000000FC7F0020790B0000690B00006D0B0000E5
:1000100000000000000000000000000000000000E0
:10002000000000000000000000000000710B000054
:100030000000000000000000750B0000CD0C000067
:1000400010B5064C2378002B07D1054B002B02D0AE
:10005000044800E000BF0123237010BD5C000020B5
:1000600000000000D01E000008B5084B002B03D094
:100070000748084900E000BF07480368002B03D089
:10008000064B002B00D0984708BDC046000000007A
:10009000D01E00006000002058000020000000007A
:1000A000064B0322104002040549586808401043DB
:1000B0005860DA695107FCD47047C0460008004216
:1000C000FFFFFCFF38B5284A284B5A805A7852B2B5
:1000D000002AFBDB264B04211A6A264D0A431A62CA
:1000E0002B68012213432B602A680123214C1A42FA
:1000F000FAD1E2691A42F7D11423236041001E4865
:1001000001F008FD421EE068FF231A4098431043A7
:10011000E0602368022213432360EA69154B9107CC
:10012000FBD45A8B30218A4310210A435A83EB694E
:1001300001205A07FBD4114B02241A7802431A708B
:100140000F4B0F22197891431970197821431970B8
:100150000C490C782043087019780A401A701A78F4
:1001600020210A431A7038BD14400000000C0040E2
:100170000004004000080042006CDC0248440041DA
:100180003444004149440041F7B500230F1C01925B
:100190001D1C994254D001212A4E4000084333705F
:1001A000C1B2294B0322588B1C1C000910400128A6
:1001B00004D05B8B1B091A40022AF2D1606AC00A84
:1001C000C00208436062217E1F4B0122880708D4C9
:1001D000197E1142F7D05968C02292020A435A6030
:1001E00003E05B8B9B08134201D0002528E03270AE
:1001F000237E9907FCD5154A154B117801251970F6
:100200006268BD4212D0134B022013406360FFF7B7
:1002100047FF33785A1C3270227E9007FCD50B4979
:100220000B480A780135C254EDB2E9E78023DB02BE
:10023000134363600199002902D00320FFF730FFC8
:10024000281CFEBD7800002000080042280800425B
:1002500099000020FFFFFBFF024B00221870024BA9
:100260001A7070477A00002079000020F8B5274BFB
:100270001C786400E4B2264B03215D8B1A1C2D0907
:100280000D40012D04D05B8B1B0919400229F2D1CE
:10029000536ADB0ADB0223435362117E01231942B6
:1002A000FBD01B49498B8908194204D00320FFF772
:1002B000F7FE022427E017490D782B1C002B11D0E4
:1002C000154EEC1A365D154C2670114E177E012422
:1002D000768B274202D12642F7D00BE0B6082642A1
:1002E0000ED007E00B701C1C00280CD00320FFF779
:1002F000D7FE08E003200B700324FFF7D1FE02E0D5
:10030000013BDBB2DAE7201CF8BDC0467A000020D2
:1003100000080042790000207B00002028080042ED
:10032000034A1378591C1170024AD05401207047B7
:10033000790000207B000020154A164B1178002917
:1003400009D11549187809784118C9B21970802067
:1003500012494003C86111780131C9B2117019788E
:10036000F02902D81978092909D80B4908784042A0
:10037000C0B20870187809784118C9B2197012789B
:100380001B789A4203D18022044B5203DA617047F2
:100390007D000020010000200000002000440041FA
:1003A00010B5041C6B20FFF757FF201CFFF7B8FFA8
:1003B0000120FFF75BFF01210A1C6B20FFF7E4FE21
:1003C000014B187810BDC0469900002038B5051CB7
:1003D0006B200C1CFFF740FF281CFFF7A1FF201C1F
:1003E000FFF79EFF0120FFF741FF022038BD08B54F
:1003F0000520FFF7D5FFCE23011C19400520FFF78C
:10040000E5FF012008BD000010B5041C0020FFF727
:10041000C7FF78232D4A9843C1B2944242D018D8DE
:100420002B4B9C4238D009D82A4B9C4230D02A4BC7
:100430009C422FD0294B9C4245D13FE0284B9C4207
:100440002CD0284B9C422BD0274B9C423BD12023C5
:1004500033E0264A94422BD00AD8254B9C4223D025
:10046000244B9C4222D0244B9C422CD1402324E09C
:10047000224A94421ED004D8214B9C4223D16023AF
:100480001BE0204A944217D01F4A944215D01AE02C
:10049000082312E0102310E018230EE028230CE0BC
:1004A00030230AE0382308E0482306E0502304E024
:1004B000582302E0682300E0702319430020FFF76F
:1004C00085FF012000E0002010BDC046581100004B
:1004D00018100000780F0000C80F0000280F00005F
:1004E000B810000008110000681000009812000009
:1004F000F811000048120000A81100003813000095
:10050000E812000088130000D813000010B5041C86
:100510000020FFF745FF07239843E122C1B2920074
:10052000944220D008D8962C18D0FA235B009C4225
:1005300017D0642C22D11CE0114A944215D005D862
:100540009623DB009C4219D1042311E0FA22D20049
:1005500094420CD00B4A94420AD00FE0012421436C
:1005600007E0022304E0032302E0052300E0062362
:1005700019430020FFF72AFF012000E0002010BDF2
:10058000DC050000B80B000070B504AC267805ACA3
:100590002578441EA041C401002901D040210C430C
:1005A000002A01D020221443002B01D010231C4329
:1005B000002E01D008231C43002D01D004231C432E
:1005C0000220FFF7EDFE0125011C294021430220F6
:1005D000FFF7FCFE281C70BD10B5041C0420FFF7BB
:1005E000DFFE03231840084B9C4204D0074B9C427B
:1005F00008D1B02100E0982101430420FFF7E6FE76
:10060000012000E0002010BD10100000701000005C
:1006100008B50120FFF7C4FECF23011C19400120BB
:10062000FFF7D4FE012008BD07B5FFF7E0FEFFF796
:10063000EFFF0948FFF7E8FEFA20C000FFF766FF6A
:10064000002300930193181C191C1A1CFFF79CFF30
:100650000248FFF7C1FF07BD08110000101000009D
:1006600008B50348FFF72EFDFFF7DEFF08BDC046C3
:10067000A086010010B5C3699C07FCD4036802245E
:10068000A3430360C46901231C42FBD104682343D4
:1006900003600368DC07FCD4C46901231C42FBD15E
:1006A000C469DC401C42F7D1084B1A430260C3699D
:1006B0005A07FCD4C0239B0243608181C3699C0715
:1006C000FCD4036802221343036010BD0400004001
:1006D000037EDA07FCD5018570470000027E012306
:1006E0005107FBD5428B1A4207D1428BDA401A429E
:1006F00003D1428B92081A4202D0034B01221A7096
:10070000008DC0B27047C0467E00002070B50368FF
:10071000041C988B1A1C0821FF32084226D0802026
:1007200099839872112353704021144B9171507129
:100730005E68134DC0202E40800506435E605E69F2
:100740003540284358610F4818600F4818615D68AC
:100750000E4828408025AD02284358605868800B19
:100760008003586000235171237105E0137ADA0683
:1007700002D5201C00F0E4FA207970BD9C01002015
:10078000FFFFFF8F9C0000201C010020FF3F00F0B6
:10079000002303714371044B016083600B780222D4
:1007A00013430B707047C0460D07000038B5364B39
:1007B0002021DA6901200A43DA61344B06241A78D1
:1007C00002431A70324B0F2219789143197019782D
:1007D000214319702F490C782043087019780A407A
:1007E0001A701A7860210A431A702B4B2B4A5A80D0
:1007F0005A7852B2002AFBDB294B01211A780A43AE
:100800001A709A78D107FCD426480268510B1F222F
:100810001140914200D1052111408C011D8D2249CA
:100820002940214319850468A10C0A401F2A00D1E0
:100830001D221C8D1F210A408C4322431A85026809
:100840000721D20D0A408A4200D103220A40188DA6
:100850001103164A02400A431A8519787F220A407A
:100860001A701A78042112480A431A7058621A89B9
:100870000C218A431A811A8901218A431A81002195
:10088000802201F0A0F938BD000400405844004126
:100890003C44004159440041000C00400640000027
:1008A00000500041246080003FF8FFFFFF8FFFFFF2
:1008B0009C010020F7B5141C1F4A5F0101971D1C05
:1008C000D319061C5869271C4000400F0330103311
:1008D000C74006D00F1C8022596812060A435A608E
:1008E00009E02F1C7B1E9F41144BBF01FF18381CD1
:1008F000221C01F05FF901990F4808354218176171
:10090000131C5269A104920B890C92030A435A6189
:1009100059690B4A0A405A616B01F3180222DA71D5
:100920005979802252420A435A716B01F318DB79DC
:100930009A07FAD5201CFEBD9C0100201C01002056
:10094000FF3F00F0F8B51A4E051C3378141C002B3D
:1009500012D1184B184A1A645A6C920B92035A64BB
:10096000586C164A02405A64A2235B00EA5C40209D
:100970000243EA54012333704827FF37EA5D01231D
:10098000134012D00B4B5A6C9204920CA24202D22A
:100990005C6CA404A40C081C221C074901F00AF991
:1009A0000123EB550023337000E01C1C201CF8BD14
:1009B0007F0000209C010020DC000020FF3F00F0B1
:1009C000FF3083792022002900D110221343837144
:1009D00070470000084BFF305A69920B92035A612E
:1009E00002230372827980235B4213438371037A6B
:1009F0009A07FCD57047C0469C01002080235B42CB
:100A00001943C9B28172704770B5A02303225B00FD
:100A1000C254134B134A5C6CC021144089050C432B
:100A200046255C64FF35402444550F4D30261D6437
:100A300090256D0046555D6B1540294392255963FD
:100A40006D0080214155094D1D63B0256D00445551
:100A50005C6F22405A67B2235B00C15470BDC04630
:100A60009C010020FFFFFF8FDC0000205C010020C4
:100A7000024B5B785BB2002BFADB7047000C004046
:100A8000024BDB68DA06FBD57047C0460008004021
:100A9000F8B52A4B1E22596891430222114359602E
:100AA000274B28491E1C9982998A0A439A82F36827
:100AB0000227234C3B42FAD0234D0123AB60FFF7C2
:100AC000D7FF224B6B60FFF7D3FF8223DB016B80E4
:100AD000FFF7CEFFA38C80229343A384FFF7D0FFC0
:100AE0001B4BE362FFF7CCFFA38C1A4A1343A3848A
:100AF000FFF7C6FFA38C1F43A784F3681A06FCD533
:100B00000F4BDB685A06F8D50024FFF7B9FFAC603D
:100B1000FFF7AEFF104B6B60FFF7AAFF0F4B104AB9
:100B2000C0215A600F4A0906106A0002000A0143F8
:100B3000116207229C601A60F8BDC0460040004167
:100B4000000800400C060000000C004001050100F8
:100B5000B805FF7D040A00000007030010E000E074
:100B6000E703000000ED00E00EBEFEE70DBEFEE76D
:100B700005BEFEE702BEFEE70E4A0F4838B58242C8
:100B800004D10E4A0E4B93420ED10AE00D4C944212
:100B9000F7D00023D1188842F3D9E55804330D600B
:100BA000F8E700F011F804E09342FAD2002102C302
:100BB000FAE7FEE7000000205C000020AC03002004
:100BC0005C000020D41E000038B5344D2B68013382
:100BD0001AD0334B2A1D1A60EAB2002A14D1314BC5
:100BE000197801231940304B0AD118682F4A9042D6
:100BF00001D1196008E01A602D4A013A002AFCD19F
:100C00001A602C4B01221A70FFF742FF62B6FFF701
:100C100027FD284B284C1B78002B0AD02B6883F328
:100C200008881E4BFF229343A3601D4B1B681B6863
:100C3000184700F09DFD00F04FF8204B8022520332
:100C40009A601F4B1F4A051C5A60216AC022090284
:100C5000090A12060A43226200229A6007221A60D9
:100C6000AB68281C9847184B002801D001221A7045
:100C70001A78002A05D0002000F08CFA00F004FB5E
:100C8000FCE71B78002BEBD100F0E6FD0028E7D055
:100C9000012000F07FFA00F0F7FAFCE700200000E6
:100CA0001C02002038040040FC7F002035817307BF
:100CB00048E801008000002000ED00E00044004111
:100CC00010E000E0E70300008100002008B5FFF716
:100CD00033FB00F0C3FA08BD10B5054B054C23608B
:100CE000FFF764FD201C2168FFF752FD201C10BD9A
:100CF000005000412002002070B5051CC0B0081C47
:100D0000161C0C1C00F067FF40006A4603230230EB
:100D10005370107076080123E218013A11785A00D6
:100D2000002906D1281C69460023FFF7C3FD40B007
:100D300070BDB342F6DA684681520133ECE7000039
:100D4000F7B5BA4A04681378B949271CFF37051C60
:100D5000102038720B705378B648B74E03709378F2
:100D60003380D178338809020B4333801179B34B38
:100D70001980517918880902084318809079B04980
:100D80000880D2790888120202430A8040227A71D0
:100D9000A84F3A78A64F120238780F1C0243A94890
:100DA0008446181C624500D1C2E020DC8021490045
:100DB0008A4200D16EE109DC812A00D192E0822AC8
:100DC00000D195E0802A00D064E18BE081235B00B4
:100DD0009A4200D1CFE000DA58E1C0239B009A424A
:100DE00000D157E1984B9A4200D14FE152E1902354
:100DF0001B019A4269D015DCD023DB009A4222D035
:100E000088231B019A4269D0A023DB009A4200D0BC
:100E100040E1201CFFF7DEFD3188286889B2FFF72A
:100E2000EDFD3BE1894B9A4200D12FE100DC31E13D
:100E3000874B9A4200D11DE1864B9A4200D029E1AE
:100E400033886B7122E133881B0A012B08D10B8890
:100E500012222868934201D80A8892B27E4911E191
:100E600033881B0A022B08D10B884322286893423F
:100E700001D80A8892B2794904E133881B0A032B0E
:100E800000D007E13388DBB2012B17D0002B07D04D
:100E9000022B00D0FEE00A882868D2B2704911E027
:100EA000042201A86F4900F085FE3B8804222868CF
:100EB000934201D83A8892B201A9E3E00A882868EF
:100EC0006949D2B2FFF718FFE8E03388201C2B7184
:100ED000FFF780FD201CFFF797FDDFE0291C01C90B
:100EE0000122CFE0614900230B8028680222CAE07A
:100EF0005E4900220A801888502210405C4A107017
:100F00001E880F20304018801888032800D9C1E0BF
:100F100012781B8808335B01E418A379002A01D0FA
:100F20009B0600E0DB06DB0F0B8028680222A9E0AD
:100F300019887F2291434E4AC9B2117018880F2137
:100F4000014019803188002900D0A3E019880029C8
:100F500000D19FE01988032900D99BE012781B88F3
:100F600008335B01E318002A02D020225A718DE079
:100F7000102159718AE002887F239A433C4BD2B2F8
:100F80001A7001880F220A4002803288002A00D09D
:100F900080E00288002A00D17CE00288032A00D980
:100FA00078E01B78002B1FD0038808335B01E3181F
:100FB0009B799A066AD50388202208335B01E318DF
:100FC0001A71038808335B01E318DB795F065DD58E
:100FD0000388402208335B01E318DA710388022298
:100FE00008335B01E3181EE0038808335B01E31854
:100FF0009B79D9064AD50388102208335B01E31890
:101000001A71038808335B01E318DB799A063DD532
:101010000388202208335B01E318DA710388012278
:1010200008335B01E3181A7130E0C0469C000020D1
:1010300083000020880000208A0000208C0000200F
:1010400086000020020300000103000021200000B0
:10105000A121000021220000241C00000400002027
:101060000C1C0000FC1B0000001C00008400002081
:10107000820000200B8808222868934201D80A8841
:1010800092B207490023FFF715FC07E0201CFFF789
:10109000A1FC03E0201C0121FFF792FCF7BDC04634
:1010A0004800002007B5054B0122019001A91868EE
:1010B000131CFFF7FFFB01200EBDC04620020020DD
:1010C00013B5054B6C4607341868211C0122FFF745
:1010D00039FC207816BDC0462002002010B5074C10
:1010E000201CFFF713FB031C0020834205D022685D
:1010F0004823FF33D05C0123184010BD200200209C
:1011000010B5054A0C1C031C191C10680123221C75
:10111000FFF7D0FB201C10BD2002002070B5084C4A
:10112000061C201C0D1CFFF7F1FA0023984205D085
:101130002068311C2A1CFFF705FC031C181C70BD1D
:1011400020020020F8B50C4C051C201C0E1CFFF7DB
:10115000DDFA0023271C341C98420AD0002C07D04B
:10116000291C221C3868FFF7EDFB241A2D18F5E71F
:10117000331C181CF8BDC0462002002008B5031C13
:10118000081C111C9847024B64221A8008BDC046F7
:1011900092000020012805D1054B064A1A60064B33
:1011A000187004E0002802D1044A014B1A6070470D
:1011B00090020020581C000098000020A41C000091
:1011C00030B50A1C1C4985B00978031C00292AD0B7
:1011D000042A01D1006804E0022A01D1008800E05D
:1011E0000078520004A98B180B3B9C1AA3420BD029
:1011F0000F210140092902D83025294300E0373169
:1012000019700009013BF1E701A930230B70782325
:101210004B700A208B1898700D20D870074B043241
:101220001B68D86803E005490968C868191CFFF7FE
:10123000A5FF05B030BDC0468E0000209002002002
:1012400072B6EFF30883044A1360036883F30888D7
:10125000436818477047C04694020020084B1A881C
:10126000002A03D01A88013A92B21A80054B1A88D4
:10127000002A03D01A88013A92B21A807047C046F9
:101280009200002090000020F0B591B008A9CC4A4F
:101290000B1C31CA31C351CA51C360CA60C3C94BA8
:1012A000C9489A687A255203520F92005258C7498A
:1012B00002609C68A4B262430C60C54900240A60C5
:1012C000C44A1460C44C2570C44CC54D2368281C06
:1012D0001B6940219847002802D0C24B64221A8023
:1012E000C14B00221860C14B1D60C14BC04DBE4FA9
:1012F0001A602A683B689A42E6D2BC4B1B681A788F
:10130000FF2A00D114E2232A00D0EBE1B94E337852
:10131000002B06D0B14BB8491B680222D868FFF7F2
:101320002DFFAD4B1B78532B3CD13B682A68934271
:101330001ED9AE4801322A609A1AB04B01681B6868
:1013400001310160AE4E9A4201D2326000E033605A
:10135000A04832680068049000F02CFC33682968CB
:101360005A182A60A14A1668F1181160A54A13702C
:101370002B68013B2B609D4B1A68013A1A60A14B08
:101380009E4A1B7811688B420AD222689148C91A7A
:10139000006892699047002802D0924B64221A801C
:1013A000C0468DE1522B0AD18A48944A23680068CE
:1013B00011685B69039098476422934B0DE04F2BB3
:1013C00005D1844B8D4A1B6812681A7078E1482B4E
:1013D00005D1804B894A1B6812681A8070E1572B2F
:1013E00005D17C4B854A1B6812681A6068E16F2B37
:1013F00003D1784B0121186807E0682B08D1754BA1
:101400007E481B6802211B880360FFF7D9FE57E165
:10141000772B06D16F4B79481B6804211B6803604A
:10142000F3E7472B13D1754B1868FFF709FF774B8C
:101430001B6883F3088862B6754B1B78002B00D1BC
:101440003EE1664B06201B681B68984738E1542B29
:1014500004D101233370614B1B6864E04E2B0CD127
:101460003378002B06D15D4B63491B680222D86894
:10147000FFF784FE0023337022E1562B57D12368F7
:101480006449D8680122FFF779FE23686249D86869
:101490000322FFF773FE614D2368291CD8680122DF
:1014A000FFF76CFE23685E49D8680D22FFF766FEE1
:1014B0002368291CD8680122FFF760FE4B4F4C4D72
:1014C0005849002339602B603A1C281C13685E1CA5
:1014D00016601B780593002B03D00368013303606B
:1014E000F4E73E4E2A683368D868FFF747FE336852
:1014F0004A49D8680122FFF741FE059929604A4907
:1015000039603A4A1368581C10601B78002B04D0CD
:10151000374B1A6801321A60F3E733682A68D868D3
:10152000FFF72CFE3368D86833490222C6E0334AFD
:10153000582B17D1244E264D366813682A68B100FF
:1015400093420AD21F4D5808E861384828801D4D43
:10155000287DC607FBD55B18F2E7204B34491B6892
:10156000D868AAE0592B79D112681A4B3149002A60
:1015700002D11B680B606CE0124D086819686B683B
:10158000104E8025AB4392087360002A61D02A4B2D
:101590000C4D2B800B4E337DDD07FBD500230A4D10
:1015A0002D680195AD08AB4203D3244D054E35801F
:1015B00046E09342F9D09D00465901334E51EEE783
:1015C000381C00000040004148020020400200207A
:1015D0003C0200208C0200203802002090020020F3
:1015E0004C02002090000020300200203402002035
:1015F000440200208E000020981C00009802002069
:101600009C0200202C020020920000209402002066
:1016100098000020741C00009D1C0000761C000037
:10162000C01C0000781C0000841C000002A5FFFF05
:101630008D1C00009400002044A5FFFF04A5FFFFBF
:101640003F4E357DEE07FBD59D0049194019D21A52
:101650009BE73C4B3C491B68D8682EE05A2B2FD1A6
:101660003A4B17681D680026EF19BD4206D028784E
:10167000311C00F013F90135061CF6E7314B3449F3
:101680001B680122D868FFF779FD07230F2232403B
:10169000111C36093031092A00DD07311820C01825
:1016A0006A468154013BF1D2236806A9D868082212
:1016B000FFF764FD23682749D8680322FFF75EFD22
:1016C000254B7A221A70254B00221A60244B1B7876
:1016D00093422DD01B4B23491B680122D868FFF78A
:1016E0004DFD25E0111C3039C8B21C4B092804D827
:1016F0001D682A01114319601AE0111C413905299E
:1017000003D81E68373A310106E0111C61390529FA
:1017100004D81868573A01010A4308E02C2A03D17B
:101720000A4A1968116001E00B490A7000221A6028
:101730000D4B1A6801321A600C4B1A680132D5E55C
:101740000040004190020020911C00008C0200200B
:10175000951C0000971C0000380200209802002011
:101760008E0000209B1C0000440200203402002058
:1017700010B51C4B01201A78032402431A701A4B2F
:101780000F2219789143197019782143197017495C
:101790000C782043087019780A401A701A783021A2
:1017A0000A431A70124B80211A6A0A431A62114BBB
:1017B000114A5A805A7852B2002AFBDBC4220F48E1
:1017C0000F499203FEF756FF0E4A002313700E4A8C
:1017D00013700E4A13700E4A13700E4A13700E4A9D
:1017E000137010BDD6440041BB440041D7440041B2
:1017F00000040040000C004019400000001C0042A2
:101800002AF60000A002002027030020A1020020E9
:10181000A4020020280300202503002008B5C1B23F
:101820000248FEF755FF012008BDC046001C0042DB
:10183000024B187E4007C00F7047C046001C004294
:1018400008B5FFF7F5FF0028FBD00248FEF746FF7A
:1018500008BDC046001C004208B5FFF7E9FF0023A1
:10186000984205D0FFF7ECFF031C233B5A4253413B
:10187000181C08BD70B5041C0D1C4618B44204D0D9
:101880002078FFF7CBFF0134F8E7281C70BD10B5B6
:10189000041CFFF7D5FF2070012010BD0B0A584033
:1018A000034B4000C05A0902484080B27047C0460E
:1018B000CE1C0000F7B50024051C0F1C261CBC42E2
:1018C00020D0FFF7BDFF114BC0B21B780190002B59
:1018D0001AD1311CFFF7E2FF0D4B061C1A88002AB3
:1018E00004D10C4A11782A1C002907D001996A1CDE
:1018F0002970802F02D11988013919800134A4B2CE
:10190000151CDCE7301C00E00120FEBD2503002093
:10191000A202002026030020F0B53E4E85B0002232
:1019200003900C1C32703C4B914201D1012201E02A
:101930003A490C801A707F231C4201D080349C43AA
:10194000FFF77EFF3378C0B2002B07D0002535703B
:10195000FFF776FF3378C0B2AB4236D1432803D0CD
:10196000712853D01528EBD1012300930120FFF7F4
:1019700055FF0098FFF752FF00998025C843C0B279
:10198000FFF74CFF039B00270293244A1388002B88
:101990001DD1214901930978002918D10198FFF739
:1019A0003DFF391C0198FFF779FF013D071C002D11
:1019B000EBD1000AC0B2FFF731FFF8B2FFF72EFFFC
:1019C000FFF73EFF3378002B0AD035701FE00299F5
:1019D000013B09781380029B019101330293DDE7FB
:1019E000C0B2062807D1009B03990133DBB28031D6
:1019F0000093803C0391002CB8D10420FFF70EFF28
:101A0000FFF71EFF044B01251C7000E00025281C79
:101A100005B0F0BD2503002026030020A20200200F
:101A2000F0B5384C87B0002301902370994201D162
:101A3000012301E0344A1180344A642613704320A4
:101A4000FFF7ECFE324FFFF7F3FE002803D1002F23
:101A500003D0013FF7E7002F03D1013E002EEED166
:101A60004DE00125FFF7ECFE2378002B38D1C0B202
:101A70000290012805D004283DD10620FFF7CEFEB4
:101A800039E005AE0221301CFFF714FF01988021D8
:101A9000FFF710FF23780390002B18D1FFF7D0FE3B
:101AA0000702FFF7CDFEBFB223783F18BFB2012B6C
:101AB0000DD0039B9F4207D13378AB4204D1EB4357
:101AC0007278DBB29A4204D01820FFF7A7FE0023F9
:101AD00003E00620FFF7A2FE029B2278002A02D034
:101AE000002626700BE0012B05D1019A6B1C803279
:101AF000DDB20192B6E7054A002313700126301CBF
:101B000007B0F0BD25030020A2020020260300201C
:101B100000350C00002934D00123002210B4884283
:101B20002CD301242407A14204D2814202D209010C
:101B30001B01F8E7E400A14204D2814202D249002D
:101B40005B00F8E7884201D3401A1A434C08A042D0
:101B500002D3001B5C0822438C08A04202D3001B66
:101B60009C082243CC08A04202D3001BDC0822437D
:101B7000002803D01B0901D00909E3E7101C10BCA1
:101B80007047002801D00020C04307B4024802A1DA
:101B90004018029003BDC046190000000029F0D093
:101BA00003B5FFF7B9FF0EBC4243891A1847C04678
:101BB0007047C04610B50023934203D0CC5CC45498
:101BC0000133F9E710BD031C8218934202D019704B
:101BD0000133FAE770470023C25C0133002AFBD1CE
:101BE000581E7047F8B5C046F8BC08BC9E46704702
:101BF000F8B5C046F8BC08BC9E467047040309040B
:101C000041726475696E6F204C4C4300417264757B
:101C1000696E6F204D4B5220576946692031303133
:101C20003000000012010002020000404123540075
:101C30000002010200010000080000001000000086
:101C400020000000400000008000000000010000B3
:101C500000020000000400001D18000041180000F0
:101C600031180000751800008F18000019190000C5
:101C7000211A00007600200041707220313120329C
:101C80003031390031333A30393A353600580A0D9F
:101C900000590A0D005A00230A0D003E00322E3072
:101CA00000000000A5100000C1100000DD100000C1
:101CB000011100001D11000001110000451100007C
:101CC0005B41726475696E6F3A58595A5D00000045
:101CD0002110422063308440A550C660E77008811F
:101CE00029914AA16BB18CC1ADD1CEE1EFF1311296
:101CF000100273325222B5529442F772D66239936F
:101D000018837BB35AA3BDD39CC3FFF3DEE36224E5
:101D1000433420040114E664C774A44485546AA5BE
:101D20004BB528850995EEE5CFF5ACC58DD5533675
:101D3000722611163006D776F6669556B4465BB70E
:101D40007AA719973887DFF7FEE79DD7BCC7C44845
:101D5000E5588668A7784008611802282338CCC95E
:101D6000EDD98EE9AFF9488969990AA92BB9F55AD5
:101D7000D44AB77A966A711A500A333A122AFDDBAE
:101D8000DCCBBFFB9EEB799B588B3BBB1AABA66CA5
:101D9000877CE44CC55C222C033C600C411CAEEDFE
:101DA0008FFDECCDCDDD2AAD0BBD688D499D977EB5
:101DB000B66ED55EF44E133E322E511E700E9FFF4E
:101DC000BEEFDDDFFCCF1BBF3AAF599F788F889104
:101DD000A981CAB1EBA10CD12DC14EF16FE18010E8
:101DE000A100C230E3200450254046706760B983EB
:101DF0009893FBA3DAB33DC31CD37FE35EF3B10238
:101E00009012F322D2323542145277625672EAB5FA
:101E1000CBA5A89589856EF54FE52CD50DC5E23487
:101E2000C324A01481046674476424540544DBA7CA
:101E3000FAB79987B8975FE77EF71DC73CD7D326D7
:101E4000F2369106B01657667676154634564CD95A
:101E50006DC90EF92FE9C899E9898AB9ABA9445827
:101E6000654806782768C018E1088238A3287DCB2A
:101E70005CDB3FEB1EFBF98BD89BBBAB9ABB754A77
:101E8000545A376A167AF10AD01AB32A923A2EFDBA
:101E90000FED6CDD4DCDAABD8BADE89DC98D267CC7
:101EA000076C645C454CA23C832CE01CC10C1FEF0A
:101EB0003EFF5DCF7CDF9BAFBABFD98FF89F176E17
:101EC000367E554E745E932EB23ED10EF01E00004B
:101ED000000000000114000009024300020100801C
:101EE0003209040000010202000005240010010470
:101EF00024020005240600010524010001070583D2
:101F0000030800FF09040100020A00000007058120
:101F100002400000070502024000000000C201006C
:101F200000000800690000004100000000000000FF
:1020000000800020C57D0000AD7D0000AD7D00009A
:1020100000000000000000000000000000000000C0
:10202000000000000000000000000000AD7D000086
:102030000000000000000000AD7D0000197E0000DF
:10204000AD7D0000AD7D0000AD7D0000AD7D0000E8
:10205000AD7D0000AD7D0000AD7D0000B17D0000D4
:10206000AD7D0000AD7D0000AD7D0000AD7D0000C8
:10207000AD7D0000FD7C0000ED7C0000AD7D00002A
:10208000AD7D0000AD7D0000AD7D0000AD7D0000A8
:1020900000000000AD7D0000AD7D0000AD7D0000C2
:1020A000AD7D0000AD7D0000AD7D0000AD7D000088
:1020B0000000000010B5064C2378002B07D1054B1B
:1020C000002B02D0044800E000BF0123237010BDA4
:1020D000E00000200000000070CB0000044B10B5B1
:1020E000002B03D00349044800E000BF10BDC046E8
:1020F00000000000E400002070CB000010B50400D8
:102100000069002801D008F01FFB200010BD00006E
:10211000962110B51C4C8901200006F0E9FE1B48F1
:1021200006F0E8FE0028FAD005F084FE626B01009C
:10213000200008F05AFA1649200008F0ECF9154979
:10214000200008F0E8F93A21200008F0E8F9626B75
:102150001421200008F045FA2021200008F0DFF9C2
:102160000D49200008F0D7F9200008F0E5F920001B
:1021700006F03CFE094800F0CDFD094800F0F2FEF3
:10218000084800F063FC10BD38010020F80300206F
:102190003DAD000042AD000030AD00001801002050
:1021A00024010020FC00002010B5024800F080FC53
:1021B00010BDC046FC000020642313B5022200932A
:1021C0000121613B0A4800F05BFD0A4B0A4A00937B
:1021D0000A490B4B0B4800F0DDFD0B4C5021200051
:1021E00000F01AFC094A0A49200008F0B1FA13BDB0
:1021F000180100201027000020AD000029AD0000CC
:1022000010AD000024010020FC0000200000002090
:10221000FD200000704710B5040008F095FA20007A
:1022200010BD000010B5084C0849200006F020FE43
:102230000A236363064B074A2360074B07492000C4
:10224000236108F085FA10BD3801002054040020F5
:102250007CAD000000000020BCAD00001522000095
:1022600070B5040038260021A519320008F0C4FB1F
:1022700032000021280008F0BFFB200003F0B0FE70
:10228000114B28002360114B22006360104B00218A
:10229000A360104BE360104B2361104B6361104B44
:1022A000A361104BE361104B2362104B6362104B30
:1022B000A362104BE362104B2363104B636303F084
:1022C0007EFE2000246570BDE52400005D25000031
:1022D000D925000055260000D1260000392700002E
:1022E000B1270000192800007D280000E128000027
:1022F00045290000A92900000D2A000089230000BB
:1023000010B50400426B08F070F9200010BD10B544
:102310000400426B08F065F9200010BD10B5040000
:1023200008F00AF923682000DB689847200010BDF8
:1023300010B505F07FFD01000F48FFF7E1FF040035
:102340000E4908F0E8F80E49200008F0E4F83A21B8
:10235000200008F0E4F890212000FFF7D8FF0400E7
:10236000202108F0DCF80749200008F0D4F820000C
:10237000FFF7D4FF002010BD380100203DAD000064
:10238000CCAD000076B0000010B501008069FFF709
:10239000CFFF10BDF7B54A6806000D003830096858
:1023A00003F018FE324C0190324F00282DD105F079
:1023B00041FD01002000FFF7A3FF0400390008F0F1
:1023C000AAF82D49200008F0A6F83A21200008F0CC
:1023D000A6F838212000FFF79AFF0400202108F01A
:1023E0009EF82649200008F096F82021200008F0E9
:1023F00096F82349200008F08EF82968200008F09C
:102400008AF82000FFF78AFFF7BD05F013FD0100F1
:102410002000FFF775FF0400390008F07CF816492A
:10242000200008F078F83A21200008F078F83B21E5
:102430002000FFF76CFF0400202108F070F80F491E
:10244000200008F068F82021200008F068F80D4905
:10245000200008F060F8019803F0C8FD010020009A
:1024600008F059F80849200008F055F8B16CC5E7A4
:10247000380100203DAD0000CCAD0000F5B00000FB
:10248000FEAD000014AE00004EB3000010B505F024
:10249000D1FC01000F48FFF733FF04000E4908F09C
:1024A0003AF80E49200008F036F83A21200008F0EA
:1024B00036F84A212000FFF72AFF0400202108F007
:1024C0002EF80749200008F026F82000FFF726FF25
:1024D000002010BD380100203DAD0000CCAD000053
:1024E00022AF000010B501008069FFF7CFFF10BDDB
:1024F00070B5150005F09EFC01001448FFF700FFC1
:102500000400134908F007F81249200008F003F806
:102510003A21200008F003F850212000FFF7F7FED1
:102520000400202107F0FBFF0B49200007F0F3FF18
:102530002021200007F0F3FF2900200007F0EBFF27
:102540002000FFF7EBFE002070BDC04638010020E0
:102550003DAD0000CCAD0000B3B0000010B51300DD
:102560000A0001008069FFF7C3FF10BD70B51500B8
:1025700005F060FC01001448FFF7C2FE0400134997
:1025800007F0C9FF1249200007F0C5FF3A212000DB
:1025900007F0C5FF56212000FFF7B9FE04002021F7
:1025A00007F0BDFF0B49200007F0B5FF20212000F8
:1025B00007F0B5FF2900200007F0ADFF2000FFF76E
:1025C000ADFE002070BDC046380100203DAD0000CA
:1025D000CCAD00006FB1000010B513000A0001007F
:1025E0008069FFF7C3FF10BD70B5150005F022FC30
:1025F00001001448FFF784FE0400134907F08BFF25
:102600001249200007F087FF3A21200007F087FFDA
:102610005C212000FFF77BFE0400202107F07FFFF4
:102620000B49200007F077FF2021200007F077FFFB
:102630002900200007F06FFF2000FFF76FFE002049
:1026400070BDC046380100203DAD0000CCAD00009B
:1026500059AE000010B513000A0001008069FFF7B1
:10266000C3FF10BD70B5150005F0E4FB0100144870
:10267000FFF746FE0400134907F04DFF1249200002
:1026800007F049FF3A21200007F049FF62212000AE
:10269000FFF73DFE0400202107F041FF0B49200019
:1026A00007F039FF2021200007F039FF2900200022
:1026B00007F031FF2000FFF731FE002070BDC0465B
:1026C000380100203DAD0000CCAD0000A3AE0000FD
:1026D00010B513000A0001008069FFF7C3FF10BDA9
:1026E00010B505F0A7FB01000F48FFF709FE040035
:1026F0000E4907F010FF0E49200007F00CFF3A21A9
:10270000200007F00CFF67212000FFF700FE040007
:10271000202107F004FF0749200007F0FCFE2000FD
:10272000FFF7FCFD002010BD380100203DAD00008A
:10273000CCAD0000C7AF000010B501008069FFF705
:10274000CFFF10BD70B5150005F074FB01001448F3
:10275000FFF7D6FD0400134907F0DDFE1249200003
:1027600007F0D9FE3A21200007F0D9FE6D212000A4
:10277000FFF7CDFD0400202107F0D1FE0B4920001A
:1027800007F0C9FE2021200007F0C9FE2900200023
:1027900007F0C1FE2000FFF7C1FD002070BDC0465C
:1027A000380100203DAD0000CCAD00002CB1000090
:1027B00010B513000A0001008069FFF7C3FF10BDC8
:1027C00010B505F037FB01000F48FFF799FD040035
:1027D0000E4907F0A0FE0E49200007F09CFE3A21AA
:1027E000200007F09CFE72212000FFF790FD0400FE
:1027F000202107F094FE0749200007F08CFE2000FE
:10280000FFF78CFD002010BD380100203DAD000019
:10281000CCAD000000B0000010B501008069FFF7EA
:10282000CFFF10BD10B505F005FB01000F48FFF705
:1028300067FD04000E4907F06EFE0E49200007F008
:102840006AFE3A21200007F06AFE77212000FFF798
:102850005EFD0400202107F062FE0749200007F01A
:102860005AFE2000FFF75AFD002010BD380100205D
:102870003DAD0000CCAD000024AE000010B501005D
:102880008069FFF7CFFF10BD10B505F0D3FA010046
:102890000F48FFF735FD04000E4907F03CFE0E49D6
:1028A000200007F038FE3A21200007F038FE7C2196
:1028B0002000FFF72CFD0400202107F030FE07491F
:1028C000200007F028FE2000FFF728FD002010BDA3
:1028D000380100203DAD0000CCAD000058AF000035
:1028E00010B501008069FFF7CFFF10BD10B505F0EE
:1028F000A1FA01000F48FFF703FD04000E4907F09D
:102900000AFE0E49200007F006FE3A21200007F0DB
:1029100006FE81212000FFF7FAFC0400202107F0C9
:10292000FEFD0749200007F0F6FD2000FFF7F6FC4A
:10293000002010BD380100203DAD0000CCAD0000EE
:10294000EDAE000010B501008069FFF7CFFF10BDAC
:1029500010B505F06FFA01000F48FFF7D1FC040035
:102960000E4907F0D8FD0E49200007F0D4FD3A21AA
:10297000200007F0D4FD86212000FFF7C8FC0400EA
:10298000202107F0CCFD0749200007F0C4FD2000FE
:10299000FFF7C4FC002010BD380100203DAD000051
:1029A000CCAD00008FAF000010B501008069FFF7CB
:1029B000CFFF10BD10B505F03DFA01000F48FFF73D
:1029C0009FFC04000E4907F0A6FD0E49200007F009
:1029D000A2FD3A21200007F0A2FD8B212000FFF785
:1029E00096FC0400202107F09AFD0749200007F01B
:1029F00092FD2000FFF792FC002010BD380100205E
:102A00003DAD0000CCAD000039B0000010B50100B4
:102A10008069FFF7CFFF10BD70B5040004F018F90E
:102A20000023802023616361A361800107F088FE99
:102A300005002069002801D007F086FE80239B0155
:102A400025616561ED18A561200070BD70B50500B8
:102A500005F0F0F9124C0100626B200007F0C5FD93
:102A60001049200007F057FD0F49200007F053FDE3
:102A70003A21200007F053FD626B1A21200007F075
:102A8000B0FD2021200007F04AFD0849200007F092
:102A900042FD2000FFF742FC280004F0B6F870BDAC
:102AA000380100203DAD0000B4B1000015B20000B7
:102AB000F0B5ADB00100070000220AA804F0D4F878
:102AC0000AA803F04AFE002800D183E010A8FFF70F
:102AD000C7FB3B6903937B69029305F0ABF9614C3B
:102AE0000100626B200007F080FD5F49200007F0C5
:102AF00012FD5E49200007F00EFD3A21200007F08C
:102B00000EFD626B2521200007F06BFD20212000C7
:102B100007F005FD5649200007F0FDFC20212000AC
:102B200007F0FDFC5349200007F0F5FC0AA908A8AE
:102B300003F0E5FF08A9200007F0F6FC4E4920004D
:102B400007F0E9FC0AA803F0C9FF626B010020004E
:102B500007F047FD2000FFF7E1FB0AA804F028F882
:102B6000002832D00AA803F083FF0028F5D00AA875
:102B700003F08AFFC3B204937E69BB699E422BD0E7
:102B8000002E02D06B461B7C33707B6901337B6166
:102B9000029B5C1C049B0A2B62D1039B06AA1B7838
:102BA000D61DD371029B08A91B7810A80093039B24
:102BB0000896E51A0995FFF7EDFB022D4DD1337804
:102BC0000D2B4CD1009B0A2B49D10AA803F0D2FF50
:102BD0003B697B612DB0F0BD3B69F41A631C02D1E7
:102BE000264807F0BCFD002C09D06500AC4207D98F
:102BF00001256D42280007F0A3FD009003E00125A8
:102C00000095002DF6D1009B1C19002C02D06B46BC
:102C10001B7C23703B690193F41A04D02200190035
:102C2000009807F0D6FE009B01341B1905937B69C1
:102C30009C1B04D022003100059807F0CAFE059BBA
:102C40001C19019B002B02D0180007F07DFD009B92
:102C50007C615D193B61BD619AE7012DB2D003949F
:102C600002947AE7380100203DAD0000B4B10000C5
:102C70003AB20000E6B10000F9B10000FBB100007B
:102C80008370009B01704270642B00D26423436008
:102C9000002303727047000070B5050005F0CAF804
:102CA000184C0100626B200007F09FFC16492000C1
:102CB00007F031FC1549200007F02DFC3A212000D7
:102CC00007F02DFC626B1F21200007F08AFC2021F9
:102CD000200007F024FC0E49200007F01CFC200017
:102CE000FFF71CFB2878002105F00AFC687800211A
:102CF00005F006FCA878002105F0CCFA00236B72E1
:102D000070BDC046380100203DAD000060B200003B
:102D100093B2000070B5050005F08CF8194C010065
:102D2000626B200007F061FC1749200007F0F3FBFD
:102D30001649200007F0EFFB3A21200007F0EFFBD7
:102D4000626B1521200007F04CFC2021200007F0C9
:102D5000E6FB0F49200007F0DEFB2000FFF7DEFA5C
:102D60002878012105F080FB6878012105F07CFBC3
:102D7000A878012105F078FB012328002B72FFF7CA
:102D80008BFF70BD380100203DAD000060B2000037
:102D9000B8B200008360009B0160C3600023426002
:102DA0000361704710B505F045F801001248FFF7C0
:102DB000A7FA0400114907F0AEFB1149200007F003
:102DC000AAFB3A21200007F0AAFB10212000FFF700
:102DD0009EFA0400202107F0A2FB0A49200007F018
:102DE0009AFB2000FFF79AFA074803F095FCFF28AA
:102DF00000D1FEE710BDC046380100203DAD000007
:102E0000E2B2000051B30000B801002010B586B056
:102E100005F010F801001A48FFF772FA040019498A
:102E200007F079FB1849200007F075FB3A212000D4
:102E300007F075FB18212000FFF769FA0400202134
:102E400007F06DFB1149200007F065FB2000FFF73C
:102E500065FA03F023FC0100684607F020FC0C49EA
:102E600003A807F01CFC03A9684607F02BFC03A885
:102E700007F0CBFB684607F0C8FB06B010BDC046A4
:102E8000380100203DAD0000E2B20000A6B3000012
:102E900014B3000070B5050004F0CCFF0100114828
:102EA000FFF72EFA0400104907F035FB0F49200008
:102EB00007F031FB3A21200007F031FB20212000F0
:102EC000FFF725FA0400202107F029FB084920001C
:102ED00007F021FB2000FFF721FAA968054803F05D
:102EE00009FC70BD380100203DAD0000E2B20000D9
:102EF0007BB30000B801002070B5050004F09AFF14
:102F000001001448FFF7FCF90400134907F003FB24
:102F10001249200007F0FFFA3A21200007F0FFFADB
:102F20003F212000FFF7F3F90400202107F0F7FA12
:102F30000B49200007F0EFFA2000FFF7EFF9280017
:102F4000FFF730FF2800FFF761FF2800FFF7A2FF1F
:102F500070BDC046380100203DAD0000E2B2000067
:102F6000FAB30000F7B50400FFF7C6FF04F062FFF4
:102F7000654D01002800FFF7C3F90600634907F01B
:102F8000CAFA6349300007F0C6FA3A21300007F068
:102F9000C6FA47213000FFF7BAF90600202107F0F2
:102FA000BEFA5C49300007F0B6FA2021300007F085
:102FB000B6FA5949300007F0AEFA2168300007F040
:102FC000AAFA3000FFF7AAF92369032B09D0626837
:102FD0002168524803F066FB2061E06804F060FF5E
:102FE000F2E704F027FF01002800FFF789F9040049
:102FF000464F390007F08FFA454E2000310007F0A8
:103000008AFA3A21200007F08AFA4C212000FFF7C3
:103010007EF90400202107F082FA3E49200007F0E3
:103020007AFA2021200007F07AFA3D49200007F0C3
:1030300072FA2000FFF772F904F0FCFE010028008C
:10304000FFF75EF90400390007F065FA310020004F
:1030500007F061FA3A21200007F061FA4D212000C3
:10306000FFF755F90400202107F059FA29492000FB
:1030700007F051FA2021200007F051FA29492000D9
:1030800007F049FA254803F043FB626B010020007A
:1030900007F088FA2449200007F03DFA2000FFF7E6
:1030A0003DF904F0C7FE01002800FFF729F90400EC
:1030B000390007F030FA3100200007F02CFA3A21ED
:1030C000200007F02CFA4E212000FFF720F9040021
:1030D000202107F024FA0F49200007F01CFA2021D4
:1030E000200007F01CFA1149200007F014FA684686
:1030F0000A4903F004FB6946200007F015FA200096
:10310000FFF70CF9F7BDC046380100203DAD0000C7
:10311000E2B20000D3B300001AB30000B8010020EF
:103120002AB3000035B3000047B300004CB30000E1
:10313000F0B520260C689A4204D101230C6003707C
:103140004260F0BD15782F00413F192F00D835435C
:10315000059F3F5DAF4205D1069D0134AC4205D0CD
:103160000132E8E7022300240C60E8E70023FAE7D5
:1031700070B50C689A4204D101230C600370426060
:1031800070BD049D16782D5DAE4205D1059D0134BC
:10319000AC4205D00132EDE7022300240C60EDE7DC
:1031A0000023FAE7F0B51900456A124B046A9D4204
:1031B0001ED8260F2B0122013343026243620C000A
:1031C000CD1700290DDA00276642AF419F420FD884
:1031D00001D196420CD812196B4102624362002061
:1031E00007E0CE43E9438B4202D8F4D1B242F2D990
:1031F0000120F0BDFFFFFF0F70B506001C00716AD3
:10320000144B006A994203D804D1134B984201D958
:10321000012070BD0A22002307F05AFB2200306211
:103220007162E317002C0CDBE543DC43A142EFD8CD
:1032300001D1A842ECD88018594130627162002057
:10324000E7E7002554429D418D42E1D8F3D1844205
:10325000F1D9DDE79999991999999999428E0D4972
:103260008A4201D9012070470A214A4392B242861C
:10327000002B0BDB0849C91A9142F3DBD21892B23A
:1032800042860648904280414042ECE759429142D2
:10329000F4DDE7E799190000FFFF0000E7030000F5
:1032A000F0B5C3690500D8B20138F5B00C001600BE
:1032B000B52801D900F05BFC07F072FA3803000072
:1032C00010030000480300003E0300005A03000002
:1032D0008A03000080030000DA030000CC03000032
:1032E0000C04000050040000400400002004000012
:1032F00080040000700500006805000082060000E0
:1033000074060000222A000072230000E42300005B
:10331000E2240000C2240000B6060000900A00006B
:10332000860A00001A070000060700005807000080
:1033300078070000EC07000016080000880800006D
:10334000B80800005A080000C4070000E4080000A4
:10335000F4080000060900002A090000500A0000D5
:103360003C0A0000220A0000740A0000DE09000086
:1033700030070000E6060000C40A0000D00A000082
:10338000240B0000060B0000540B0000820B000011
:103390000C0C0000E40B00006C0C0000980C00000A
:1033A0003E0C0000C00B0000C80C0000CC24000044
:1033B000D80C0000280D00006C0D0000C40D0000AA
:1033C000EA0D00004E0E00003A0E0000D60E00007E
:1033D000500F0000900F0000220F0000E80F0000C7
:1033E000D20F00006A10000060100000E41000001E
:1033F000A0100000F2100000E8100000081100000A
:10340000121100006A110000C2110000B211000088
:10341000D0110000C6110000D80200000612000002
:103420003E1200006C2900004E1200005E210000D8
:103430007212000092120000E41900000E1A00003F
:1034400004130000D61200006E1A0000581A000083
:10345000421A00003E130000D81A0000C21A0000F1
:10346000B21A0000101B00008E1B00007A1B000027
:10347000481B0000CA1B00008E130000201C000027
:10348000061C00007A1C0000B61400004614000060
:10349000161400001615000000150000EA140000C4
:1034A000861400005C1C0000B61C0000EE1C00002E
:1034B000461500003616000020160000481D0000CA
:1034C000681600008E150000DA160000C216000013
:1034D000B01600009A160000CA150000041600007D
:1034E000261D0000B01D00008E170000BE17000052
:1034F00030170000941D0000821D0000121800000B
:10350000FA170000361E00001E1E0000061E0000F6
:103510004E1800007E180000E81D0000BA180000D8
:10352000B61E00009E1E00001E1F0000FC180000BA
:10353000461900003219000076190000001F000033
:10354000EE1E0000A4190000601F0000561F0000BE
:10355000A61F0000981F0000861F00006C1F0000BF
:103560003E20000026200000A42000009020000043
:103570002E210000EC200000902100001822000005
:1035800004220000F42100005E2200004A22000014
:10359000C02200009B4AB44201D102F053FC2378C0
:1035A000D35C022B01D100F070FF032B01D100F09E
:1035B00085FF012B01D002F027FB631C07220020AE
:1035C000EA60914A6B612A61E86114E032002100EF
:1035D000280002F0E1FE2B002F33012801D101F079
:1035E000CBFF00221A702A002D321278520701D523
:1035F00001F0C2FF012075B0F0BD2B002E331B7807
:10360000012BE3D11623EB60804B6C612B6102230D
:103610000020EB61EFE732002100280002F0F4FD0A
:103620000028EAD0152801D101F0AAFF12230020BA
:10363000EB60774B6C612B61E861DCE7B44201D150
:1036400002F053FB0134B44201D102F04BFB0134D0
:1036500032002100280002F002FE002800D1E1E043
:10366000152801D101F0BBFF14230020EB60694B4A
:103670006C612B61E861BEE738000021121A8B41B2
:1036800008202A626B62B6E7B44201D102F030FB37
:10369000614B6C60AB60371B2A6A6B6A9742EBD355
:1036A000A41800270022002369682A626B626F60F9
:1036B0002200280002F0B4FDB842BFD00723E86022
:1036C0006C61EB61380096E72B6A6A6A1343DBD1C1
:1036D00080232A8E13432B8602F056F8B44201D180
:1036E00002F02CFB2378202B07D03B2B05D00D2B91
:1036F00001D001F086FF013408E00134B44201D169
:1037000002F0FCFA237801340D2BF7D1B44201D139
:1037100002F0F1FA013432002100280002F094FD99
:103720000028D1D0152801D101F062FF1323002019
:10373000EB603A4B6C612B61E8615CE7B44201D10C
:1037400002F0FFFA207830383628C7D807F00AF898
:103750001C2D303336393C3F4245C6C6C6C6C6C6A8
:10376000C6484B4E515457C6C6C6C6C6C6C6C6C6C0
:10377000C6C6C6C6C6C6C6C6C6C6C6C6C6C6C6C6E9
:10378000C6484B4E515457000023013432002100EB
:103790002800FFF707FD0128D0D10C230020EB60A3
:1037A0001F4B6C612B61E86125E701340123EDE7D4
:1037B00001340223EAE701340323E7E70134042359
:1037C000E4E701340523E1E701340623DEE70134B1
:1037D0000723DBE701340823D8E701340923D5E7C1
:1037E00001340A23D2E701340B23CFE701340C2341
:1037F000CCE701340D23C9E701340E23C6E70134B9
:103800000F23C3E74CC10000DDB4000023B4000067
:1038100011B500004EB5000021620000D2B50000D5
:10382000A8B50000002200232A626B62B44201D1D5
:1038300002F08AFA20783038362801D901F0EAFE01
:1038400006F0AEFF44FFFFFF66FFFFFF6CFFFFFFC8
:1038500072FFFFFF78FFFFFF7EFFFFFF84FFFFFF88
:103860008AFFFFFF90FFFFFF96FFFFFFD01D0000C4
:10387000D01D0000D01D0000D01D0000D01D000094
:10388000D01D0000D01D00009CFFFFFFA2FFFFFF26
:10389000A8FFFFFFAEFFFFFFB4FFFFFFBAFFFFFF70
:1038A000D01D0000D01D0000D01D0000D01D000064
:1038B000D01D0000D01D0000D01D0000D01D000054
:1038C000D01D0000D01D0000D01D0000D01D000044
:1038D000D01D0000D01D0000D01D0000D01D000034
:1038E000D01D0000D01D0000D01D0000D01D000024
:1038F000D01D0000D01D0000D01D0000D01D000014
:10390000D01D0000D01D00009CFFFFFFA2FFFFFFA5
:10391000A8FFFFFFAEFFFFFFB4FFFFFFBAFFFFFFEF
:1039200038000021121A8B4111202A626B6262E674
:10393000B44201D102F00BFAC04B6C60AB60371B94
:103940002A6A6B6A9742EBD3A4180027002200234F
:1039500069682A626B626F602200280002F060FCD6
:10396000B84200D157E60523E8606C61EB6138008E
:1039700041E6B44201D102F0F0F90027B04B6F608C
:10398000AB6022002100280002F014FCB84201D1F3
:1039900001F0F5FE1723E8606C61EB6138002AE660
:1039A000013422001400964201D102F006FA137885
:1039B0000A2B00D1C9E100D9BCE1092B16D1013293
:1039C000F0E7B44201D102F0D4F923780A2B01D0F8
:1039D00001F014FF0134B44201D102F0C7F9237899
:1039E000092B03D0202B01D001F0FDFEB44201D100
:1039F00002F0E0F9924B6C60AB602B002C3318782E
:103A00000138032800D96AE106F0C0FE3A007A0FB7
:103A1000880F920FB44201D102F0AEF923780A2B3D
:103A200001D101F0F4FE671C0D2B01D101F033FF31
:103A30003C00EFE71E20914200D1DCE523780A2B01
:103A400001D101F0E4FE0D2B01D101F011FF2B009B
:103A50002D331B78DB07DDD40A230020EB60794B84
:103A60006C612B61E861C6E50134B44201D102F01A
:103A700086F92378D35C012BF6D0022BDED10134FA
:103A8000220020211400964201D102F07EF9137821
:103A900018004138192800D80B43632B51D035DC6E
:103AA000092B31D0202B2FD0674ADEE7202B0FD0F7
:103AB0002C2B18D12A002C32107801340538032819
:103AC000DED82B8E06F062FEFA0E010F030F050FF3
:103AD0000134B44201D102F055F923780D2BADD059
:103AE000E4D80A2BAAD02B0000222C331A70DBE773
:103AF000062201342B002C331A70EAE721207AE5E4
:103B0000222078E5232076E50132BBE76B2B30D00D
:103B1000752BC9D1541CB442F4D0062301934B4BEE
:103B200006AF00932200330029003800FFF700FBA6
:103B30003B787C68012BE5D0002B16D1013407229D
:103B4000D8E7541CB442D9D004230193404B02AFB0
:103B500000932200330029003800FFF7E9FA3B7890
:103B60007C68012BCAD0002BC2D0022B9CD006F05F
:103B7000D9FE541CB442C3D009230193354B04AF82
:103B800000932200330029003800FFF7D1FA3B7878
:103B90007C68012BB4D0002BE7D101340522A9E7C2
:103BA0000B230020EB602C4B6C612B61E86122E55C
:103BB0000B230020EB60294B6C612B61E8611AE557
:103BC0000134B44201D102F0E3F823780D2B05D083
:103BD000202BF5D00A2B01D001F080FE20232A8E65
:103BE00013432B862AE727003C00BE4201D102F096
:103BF000D2F8387830380928E3D801373C0006F08D
:103C0000BBFD052F31333537393B3D3F00233200B3
:103C100039002800FFF7F0FA0128E5D1002669688D
:103C20003A006E60280002F0C5FAB042B8D02523F1
:103C3000E8606F61EB613000DDE4C04621620000A6
:103C4000B5610000A9B600004CBA000009BA000036
:103C5000B5B90000E2B900003CB4000054B4000063
:103C60000123D4E70223D2E70323D0E70423CEE7DE
:103C70000523CCE70623CAE70723C8E70823C6E7DE
:103C80000923C4E701331C009E4201D102F089F8E8
:103C90001A78092AF6D0202AF4D0B4420ED0202077
:103CA0002B68C44F2278D95D0243914226D101335B
:103CB000072B3BD00134A642F4D12B602D209AE48F
:103CC0000134B44201D102F072F82378D35C012BA5
:103CD000F6D0022B0FD02B0000222C331A70B64BDB
:103CE000B44201D102F060F822789A5C012A00D037
:103CF000A4E60134F4E701342300C4E702230022E0
:103D00002A60012BDAD0022B12D00134B44201D147
:103D100002F044F823780D2B03D0202BF5D00A2B8A
:103D2000BBD12B0008222C331A7087E60023E6E76C
:103D3000A24AC6E70D2B03D0202B00D13FE655E663
:103D40000134B44201D102F00EF80134B44201D181
:103D500002F006F82378092B00D121E6202B00D1B0
:103D60001EE62A002C321078022801D001F0F8FC5F
:103D70000B230020EB60924B6C612B61E8613AE40D
:103D800032002100280002F009FA0AE631209142AF
:103D900000D130E423783A2B01D001F0E1FD002777
:103DA000696822006F60280002F0E4F90134B8422B
:103DB000E6D03023E8606C61EB613800FFF71BFC54
:103DC0000134B44201D101F0FEFF2378202BF7D05B
:103DD00000273A2B01D101F0B1FD2B002C331F70CD
:103DE000784BB44201D101F0EBFF22789A5C012AB2
:103DF000D0D10134F5E73420FFF7FDFB0223013475
:103E00002A002C321370DCE73520FFF7F4FB013475
:103E1000B442F0D0062301936B4B08AF009322000D
:103E2000330029003800FFF783F93B787C68012BC9
:103E3000E1D0002B16D101340123E1E70134B44273
:103E4000E2D00A230193614B0AAF009322003300B2
:103E500029003800FFF76CF93B787C68012BD3D040
:103E6000002BCBD0022B3ED081E63720FFF7C3FBDF
:103E70003920FFF7C0FB3A20FFF7BDFB3B20914202
:103E800001D1FFF7B8FB23781A00413A192A01D86B
:103E900020221343702B46D02ADC632B23D101341C
:103EA000B442E2D002230193494B0CAF00932200AD
:103EB000330029003800FFF73BF93B787C68012B81
:103EC000D3D0002BCED10134B44201D101F07EFF1A
:103ED00023781A00413A192A01D8202213436E2B65
:103EE00095D0742BAAD02B0000222C331A7077E7C0
:103EF000742B2ED0752BF6D10134B442BBD00623DF
:103F00000193344B12AF0093220033002900380094
:103F1000FFF70EF93B787C68012BACD0002BA1D1C8
:103F2000013404236CE70134B4420FD00F23019312
:103F3000294B0EAF00932200330029003800FFF711
:103F4000F7F83B787C68012B00D072E73820FFF748
:103F500052FB0134B4428BD0102301931F4B10AF9E
:103F600000932200330029003800FFF7E1F83B7886
:103F70007C68012B00D17BE7002B00D072E7013475
:103F800003233DE7B44201D101F023FF144B6C60E1
:103F9000AB6078E7914201D101F021FF9023013419
:103FA0001B016B8532002100280002F0B7F801F0F8
:103FB000EBFBC04640BA00004CBB00004CBA00000E
:103FC0006DB600004CBC000086B900003AB9000094
:103FD00038B9000063B9000044B9000053B90000CB
:103FE0007561000091421CD002230193BE4B14AFB7
:103FF00000932200330029003800FFF7B9F83B781E
:104000007C68012B0DD0002BC8D0022B00D0AEE570
:1040100007230020EB60B54B6C612B61E861FFF773
:10402000EAFA3F20FFF7E7FAB44225D00A230193CA
:10403000AF4B16AF00933800330022002900FFF782
:1040400097F838787B68012816D000280BD0022812
:1040500000D08CE509220020EA60A64A6B612A6143
:10406000E861FFF7C8FA1722EA60A34A01332A6120
:104070006B61E861FFF7BFFA4020FFF7BCFA01343B
:10408000B44201D101F0AEFE23780A2B14D10134E1
:1040900001F07AFB00232A002B3213702B00293306
:1040A0001B78222BC0D0B44201D101F09EFE2378B0
:1040B0000A2BECD00D2BE2D009230020EB608F4BB4
:1040C0006C612B61E861FFF796FA0123E3E70223B5
:1040D000E1E70323DFE70423DDE70523DBE706232E
:1040E000D9E70723D7E70823D5E70923D3E7002338
:1040F0002A002A321370B44201D101F07CFE2378E9
:104100002E2B01D001F060FC0134B44201D101F04A
:104110006FFE20783038092801D901F04CFC0134B9
:1041200006F020FBB8D3D5D7D9DBDDDFE1E30123EF
:10413000DEE70223DCE70323DAE70423D8E70523DD
:10414000D6E70623D4E70723D2E70823D0E70923DD
:10415000CEE72B0029331B780134222B19D90823F1
:10416000EB60674B6C612B61E861FFF744FA462016
:10417000FFF741FA4720FFF73EFA2B0029331B785F
:104180000134DAB2062A04D015D8012A01D0032A54
:1041900014D1B44201D101F031FE20783038092821
:1041A00001D901F01AFC013406F0DCFAA1C1C3C543
:1041B000C7C9CBCDCFD1233B0A2BEAD90823002096
:1041C000EB60504B6C612B61E861FFF714FA4820FB
:1041D000FFF711FA492B38D0522B2DD10134B442BC
:1041E000F5D004230193484B1CAF00932200330009
:1041F00029003800FEF7BCFF3B787C68012BE6D035
:10420000002BBAD0022B17D0B1E40134B442AED0A7
:10421000042301933D4B18AF009322003800330074
:104220002900FEF7A5FF38787C6801289FD0002878
:104230008FD0022800D09AE408230020EB60344B92
:104240006C612B61E861FFF7D6F90134B44291D07B
:10425000032301932F4B1AAF009322003800330041
:104260002900FEF785FF38787C68012882D0002875
:10427000DFD12B0029331B780134212B89D008236F
:10428000EB60254B6C612B61E861FFF7B4F94A20C4
:10429000914201D1FFF7AFF901343200210028002B
:1042A00001F03CFFB44201D101F0ABFD2378482B73
:1042B000ABD08FD8202BBFD10134F3E70134B44207
:1042C00001D101F0A1FD2278985C0138032801D9C1
:1042D00001F0D4FB06F064FAE4FFFFFF381700009A
:1042E0005C1700008017000069B9000078B4000076
:1042F0006FB900009BB4000086B40000F1B6000066
:1043000046B7000095B700007CB900006BB900000B
:10431000CEB4000079B900006AB70000914201D123
:1043200001F075FD0134DA4BC9E70134B44201D123
:1043300001F070FD2278985C0138042801D901F061
:10434000DCFB06F02DFAC046E2FFFFFF4617000037
:104350006A1700008E170000DCFFFFFF4E2091421D
:1043600001D1FFF748F92378202B01D101F03EFB62
:1043700011D800270A2B01D101F0FBFA0D2B01D136
:1043800001F008FB07230020EB60C24B6C612B613E
:10439000E861FFF730F9232BC4D03F2BF2D1013471
:1043A000BD4BC3E7B44201D101F03AFD0134BB4B30
:1043B000B44201D101F031FD22789A5C012AD2D1B8
:1043C0000134F5E79142F1D15120FFF714F9B442DD
:1043D000ECD15220FFF70FF907230020EB60B04B20
:1043E00001342B616C61E861FFF705F90134B442D7
:1043F00001D101F01BFD2278985C0138062801D913
:1044000001F0F9FB06F0CCF90417000028170000B2
:104410004C170000E4FFFFFFA4FFFFFF96FFFFFF24
:104420001C0000000134B44201D101F0FCFC2378EF
:104430009C4AD05C0138062801D901F0D3FB06F074
:10444000AFF9C04634170000581700007C17000071
:10445000380000008AFFFFFF5AFFFFFF94FFFFFFB5
:10446000202A01D1FFF7A9F82F2A1ED10134B44226
:1044700001D101F0DEFC23782F2B16D101348A4BB9
:10448000B5E7914201D101F0DAFC0134B44201D127
:1044900001F0D2FC22780D2A01D1FFF78EF8DFD887
:1044A000631C0A2A01D1FFF789F807230020EB607B
:1044B0007E4B6C612B61E861FFF79DF80134FFF7DB
:1044C0006AF85920914201D1FFF795F82378784A8C
:1044D000D35C022B00D165E7032B01D1FFF75AF81B
:1044E000012B01D1FFF769F807230020EB60714B26
:1044F0006C612B61E861FFF77EF8B44201D101F0F5
:10450000A4FC6D4B6C60AB60E0E7B44201D101F0FC
:10451000A2FC2378202B01D001F07FFB0134F4E7CB
:10452000013424230DE05F20FFF765F80134B44225
:1045300001D101F096FC23784C2B00D0BBE3013471
:10454000393B2A002932137000F067FF0134B4426E
:10455000E9D006230193594B1EAF0093220033008C
:1045600029003800FEF704FE3B787C68012BDAD086
:10457000002BD5D0022B00D19DE3FFF7F8FA612084
:10458000FFF739F86220FFF736F86320FFF733F8BA
:104590000134B442F9D004230193494B24AF009372
:1045A0002200330029003800FEF7E2FD3B787C68EA
:1045B000012BEAD0002BDDD101340523C1E7013402
:1045C000B442DFD0062301933E4B22AF009322007A
:1045D000330029003800FEF7CBFD3B787C68012BC7
:1045E000D0D0002BC6D101341623AAE76720FFF7ED
:1045F00002F86820FEF7FFFF0134B442F6D003232F
:104600000193314B26AF009322003300290038007C
:10461000FEF7AEFD3B787C68012BE7D0002BA9D1DB
:1046200001348EE76B20FEF7E6FF6C20FEF7E3FF18
:104630006E20FEF7E0FF6F20FEF7DDFF7020FEF733
:10464000DAFF7120FEF7D7FF0134B442F6D002231F
:1046500001931E4B32AF0093220033002900380033
:10466000FEF786FD3B787C68012BE7D0002B81D1DB
:1046700001341F2365E77320FEF7BDFF7420FEF7AA
:10468000BAFF7520FEF7B7FF7620FEF7B4FFC046ED
:104690004CBD0000F6B700004CBE00004CBF00004F
:1046A000BEB400004CC000004CC000002DB800009B
:1046B0004CC200004BB80000F560000080B900005B
:1046C00095B900008FB9000099B90000B3B9000096
:1046D0000134B442D8D006230193D04B3CAF0093B1
:1046E0002200330029003800FEF742FD3B787C6849
:1046F000012BC9D0002B00D03CE701341E2320E75A
:104700000134B442BDD007230193C54B3AAF0093A7
:104710002200330029003800FEF72AFD3B787C6830
:10472000012BAED0002B00D024E70134152308E77D
:104730007A20FEF760FF4B2B34D04F2B00D0BAE22B
:104740000134B442F4D002230193B64B3EAF009340
:104750002200330029003800FEF70AFD3B787C6810
:10476000012BE5D0002B00D004E701340B23E8E651
:104770000134B44200D181E703230193AA4B38AF3F
:1047800000932200330029003800FEF7F1FC3B784B
:104790007C68012B00D171E7002B00D0EAE60134E0
:1047A0001723CEE60134B44201D101F07BFB23781C
:1047B000412BA5D0432B00D07DE20134B44201D17E
:1047C00001F06DFB2378412B82D04F2B00D072E299
:1047D0000134B44201D101F05FFB23784C2B00D0AF
:1047E00069E20134423BACE67C20FEF704FF7D2009
:1047F000FEF701FF7E20FEF7FEFE7F20FEF7FBFEA8
:104800000134B442F6D002230193884B44AF0093A5
:104810002200330029003800FEF7AAFC3B787C68B0
:10482000012BE7D0002B00D0A4E601341C2388E63E
:104830008120FEF7E0FE8220FEF7DDFE8320FEF7FA
:10484000DAFE8420FEF7D7FE0134B442F6D003230B
:104850000193774B4CAF00932200330029003800BE
:10486000FEF786FC3B787C68012BE7D0002B00D05C
:1048700080E601340C2364E60134222361E68820BB
:10488000FEF7B9FE0134B442F9D002230193694B1B
:1048900050AF00932200330029003800FEF768FC77
:1048A0003B787C68012BEAD0002B00D062E6013413
:1048B0001D2346E6522B4DD0552B00D0FBE1013491
:1048C000B44201D101F000FB2378522BDAD0542BF3
:1048D00000D0F0E10134042333E60134B44201D1C5
:1048E00001F0E6FA2378542B8AD0552B00D0E2E170
:1048F0000134B44281D0022301934F4B46AF009361
:104900002200330029003800FEF732FC3B787C6837
:10491000012B00D171E7002B00D02BE601342723B7
:104920000FE60134B44286D002230193434B4AAFD1
:1049300000932200330029003800FEF719FC3B7871
:104940007C68012B00D176E7002B00D012E6013401
:104950000323F6E50134B44201D101F0B2FA237821
:10496000492B89D04F2B00D0A5E10134B44201D1AD
:1049700001F0A4FA2378502B00D09CE10134B4421A
:1049800001D101F098FA2378462B00D15CE7502B37
:1049900000D090E10134B44200D152E704230193E6
:1049A000274B4EAF00932200330029003800FEF75A
:1049B000DFFB3B787C68012B00D142E7002B00D065
:1049C000D8E501340D23BCE58B20FEF714FE8C20C6
:1049D000FEF711FE8D20FEF70EFE8E20FEF70BFE79
:1049E000442B49D0502B00D065E10134B442F4D0BF
:1049F00003230193134B58AF009322003300290087
:104A00003800FEF7B5FB3B787C68012BE5D0002B26
:104A100000D0AFE50134142393E5C046CBB90000C4
:104A2000C4B90000D1B90000C1B90000DEB900006E
:104A3000EFB90000F6B90000E0B90000EDB90000E0
:104A4000F2B9000003BA00000134B442BFD003231E
:104A50000193BB4B54AF0093220033002900380070
:104A6000FEF786FB3B787C68012BB0D0002B00D092
:104A700080E501342C2364E50134B442AAD0052337
:104A80000193B04B56AF0093220033002900380049
:104A9000FEF76EFB3B787C68012B9BD0002B00D08F
:104AA00068E501342B234CE59120FEF7A4FD93200B
:104AB000FEF7A1FD0134B44201D101F011FA2378CF
:104AC000502B00D0F7E001342B3B3AE50134B442DF
:104AD000EAD0032301939C4B5AAF0093220033008A
:104AE00029003800FEF744FB3B787C68012BDBD0C3
:104AF000002B00D03EE501340E2322E59620FEF780
:104B00007AFD9720FEF777FD0134B442F6D00423F6
:104B100001938E4B5EAF00932200330029003800D2
:104B2000FEF726FB3B787C68012BE7D0002B00D0FA
:104B300020E50134212304E50134B442E1D0072308
:104B40000193834B60AF00932200330029003800AB
:104B5000FEF70EFB3B787C68012BD2D0002B00D0F7
:104B600008E501341A23ECE49920FEF744FD9A206D
:104B7000FEF741FD0134B442F6D006230193754B94
:104B800062AF00932200330029003800FEF7F0FAEC
:104B90003B787C68012BE7D0002B00D0EAE401349D
:104BA0002823CEE49C20FEF726FD9D20FEF723FD62
:104BB0009E20FEF720FD0134B442F6D0022301937B
:104BC000654B68AF00932200330029003800FEF7E0
:104BD000CFFA3B787C68012BE7D0002B00D0C9E4EA
:104BE00001342023ADE4A020FEF705FD0134B442DA
:104BF00001D101F084F92378492BDCD04F2B5AD115
:104C00000134B442D4D002230193544B6AAF0093D1
:104C10002200330029003800FEF7AAFA3B787C68AE
:104C2000012BC5D0002B00D0A4E401340F2388E46D
:104C30000134B442D7D008230193494B6CAF0093A1
:104C40002200330029003800FEF792FA3B787C6896
:104C5000012BC8D0002B00D08CE401341B2370E45E
:104C6000B44201D101F054F920784138142822D8F7
:104C700005F08CFD15002A0044007C002100AB00EB
:104C8000C7000801210021002100260151017E01F9
:104C90009A01B6012100E401170272029A0201345E
:104CA000B44201D101F0E0F82378432B00D13DE478
:104CB0004E2B00D14AE406230020EB60294B6C61A7
:104CC0002B61E861FEF797FC0134B44200D156E451
:104CD00003230193244B20AF0093220033002900CB
:104CE0003800FEF745FA3B787C68012B00D146E49A
:104CF000002B00D03EE40134102322E40134B442FE
:104D000001D101F0BAF82378482B00D157E44F2B9A
:104D1000D1D10134B44201D101F0ACF823784E2B4B
:104D200000D135E4502BC6D10134B44201D101F099
:104D30009EF82378592BBED10134513BFFF701FC7B
:104D4000FBB90000FEB9000006BA000018BA000066
:104D50001CBA000023BA00002FBA000031BA0000CC
:104D600033BA000084B800008CB900000134B442AA
:104D700001D101F088F82378452B9CD10134B4424D
:104D800001D101F07DF823784C2B00D134E4532B72
:104D900091D10134B44200D12BE405230193E24BBD
:104DA00028AF00932200330029003800FEF7E0F915
:104DB0003B787C68012B00D11BE4002B01D0FFF76E
:104DC000D9FB01342323FFF7BCFB0134B44200D1EB
:104DD00028E404230193D54B2AAF0093220033002B
:104DE00029003800FEF7C4F93B787C68012B00D11C
:104DF00018E4002B01D0FFF7BDFB01342D23FFF792
:104E0000A0FB0134B44200D112E402230193C84B49
:104E10002EAF00932200330029003800FEF7A8F9D6
:104E20003B787C68012B01D1FFF702FC002B01D0FD
:104E3000FFF7A0FB0134B44201D101F027F8237839
:104E40005F2B01D000F0F8FE0134B44201D1FFF72E
:104E5000ECFB09230193B74B2CAF009322003300E6
:104E600029003800FEF784F93B787C68012B01D1DA
:104E7000FFF7DBFB002B01D0FFF77CFB013429237C
:104E8000FFF75FFB0134B44201D1FFF7D4FB0323EA
:104E90000193A94B30AF0093220033002900380062
:104EA000FEF766F93B787C68012B01D1FFF7C3FB65
:104EB000002B01D0FFF75EFB01340223FFF741FB1B
:104EC0000134B44201D100F0E4FF2378492B01D131
:104ED000FFF7BAFB4F2B00D0EDE60134B44201D10D
:104EE000FFF7AFFB02230193944B34AF00932200F2
:104EF000330029003800FEF73BF93B787C68012B32
:104F000001D1FFF79EFB002B01D0FFF733FB0134EB
:104F10000923FFF716FB0134B44201D100F0C5FFAD
:104F20002378452B00D123E401D9FFF704FC2D2B76
:104F300000D0C0E60134B44201D1FFF79CFB062348
:104F400001937F4B36AF00932200330029003800D5
:104F5000FEF70EF93B787C68012B01D1FFF78BFB44
:104F6000002B01D0FFF706FB01341823FFF7E9FA05
:104F70000134B44200D137E405230193714B40AFB3
:104F800000932200330029003800FEF7F1F83B7847
:104F90007C68012B00D127E4002B01D0FFF7EAFA4F
:104FA00001341923FFF7CDFA0134B44200D11EE4D5
:104FB00006230193644B42AF009322003300290083
:104FC0003800FEF7D5F83B787C68012B00D10EE461
:104FD000002B01D0FFF7CEFA01340623FFF7B1FA18
:104FE0000134B44201D100F072FF23784F2B00D17D
:104FF00097E400D95EE4412B00D16EE44C2B00D045
:1050000059E60134B44200D112E4022301934F4B1C
:1050100048AF00932200330029003800FEF7A8F8BB
:105020003B787C68012B01D1FFF702FC002B01D0FB
:10503000FFF7A0FA01342623FFF783FA0134B442C4
:1050400001D100F04AFF2378452B00D033E601342C
:10505000B44201D100F03EFF2378432B00D1F3E4AA
:1050600000D9BDE4422B00D025E60134B44200D182
:10507000AAE403230193364B52AF0093220033007E
:1050800029003800FEF774F83B787C68012B00D1CA
:105090009AE4002B01D0FFF76DFA01341123FFF7DA
:1050A00050FA0134B44201D100F023FF23784F2B92
:1050B00000D129E5552B00D13EE5452B00D0FAE57E
:1050C0000134B44201D100F011FF2378412B00D10B
:1050D000FCE4542B00D0EEE50134B44201D100F0E1
:1050E00002FF2378552B00D1E4E45F2B00D0E2E5EA
:1050F0000134B44200D1DAE409230193154B5CAFCB
:1051000000932200330029003800FEF731F83B7885
:105110007C68012B00D1CAE4002B01D0FFF72AFAEA
:1051200001342A23FFF70DFA9CB90000A1B9000051
:10513000A5B90000A7B90000B0B90000B9B90000D6
:10514000BBB90000D3B90000D8B90000EBB900002A
:10515000F8B900000FBA00000134B44201D100F0E8
:10516000CBFE2378452B00D104E5522B00D0A2E5DD
:105170000134B44200D1FAE403230193C34B64AF7A
:1051800000932200330029003800FDF7F1FF3B783F
:105190007C68012B00D1EAE4002B01D0FFF7EAF98B
:1051A00001340723FFF7CDF90134B44201D100F0F7
:1051B000ACFE23784E2B00D07DE50134B44201D102
:1051C00000F0A0FE23784C2B00D10FE5532B00D12B
:1051D0002EE5422B00D06EE50134B44200D1E1E46B
:1051E00003230193AA4B66AF0093220033002900EA
:1051F0003800FDF7BDFF3B787C68012B00D1D1E47E
:10520000002B01D0FFF7B6F901341223FFF799F90B
:105210000134B44201D100F07EFE0134320021009D
:10522000280000F09BFFAFE2B44201D100F07FFE06
:1052300023780D2B05D0202B2FD00A2B01D000F086
:1052400018FDB44201D100F06FFE23780A2BE4D0A0
:105250000D2BDDD0B44201D100F063FE8D4B6C60AC
:10526000AB602200B44201D100F058FE1378013443
:105270000A2B01D100F0ECFC0D2BF2D1002769685C
:1052800028006F6000F056FFB842C2D0A523E86046
:105290006C61EB613800FEF7AEF90134D1E7002311
:1052A000320021002800FDF7D9FF012801D100F0CC
:1052B000C6FC230023E00123F2E70223F0E70323E7
:1052C000EEE70423ECE70523EAE70623E8E70723F4
:1052D000E6E73B00E4E70923E2E700232A002B325C
:1052E0001370B44201D100F028FE2378202B01D0A6
:1052F00000F0C8FC002301346B86230008271C0043
:105300009E4201D100F016FE1878303809288BD85B
:105310005C1C05F027FAC4D0D2D4D6D8DADCDEE0A3
:105320000123DBE70223D9E70323D7E70423D5E7EB
:105330000523D3E70623D1E70723CFE70823CDE7EB
:105340000923CBE700232A002A321370B44201D18B
:1053500000F0F9FD23782E2B01D000F0A5FC0134DC
:10536000B44201D100F0ECFD20783038092801D991
:1053700000F091FC013405F0F5F9B0D3D5D7D9DBB5
:10538000DDDFE1E30123DEE70223DCE70323DAE7E5
:105390000423D8E70523D6E70623D4E70723D2E77B
:1053A0000823D0E70923CEE7B44230D00523019388
:1053B000394B6EAF00932200330029003800FDF70F
:1053C000D7FE3B787C68012B21D0002B0CD0022B20
:1053D00001D0FEF7CCFB08230020EB602F4B6C6163
:1053E0002B61E861FEF707F90134B44201D100F006
:1053F000ADFD20783038092801D900F05EFC013479
:1054000005F0B0F9A0C0C2C4C6C8CACCCED0AF2087
:10541000FEF7F1F8224B01342B85B44201D100F0A4
:105420001DFD2378202B01D1FFF778F806230020FB
:10543000EB601C4B6C612B61E861FEF7DCF8B0207F
:10544000FEF7D9F8B120FEF7D6F80134B442F6D011
:1054500002230193144B70AF009322003300290004
:105460003800FDF785FE3B787C68012BE7D0002BE8
:10547000D0D0022B01D0FEF77AFB08230020EB608E
:105480000A4B6C612B61E861FEF7B5F829BA0000A0
:105490002CBA0000356100003BBA0000CEB4000019
:1054A0000102000068B8000047BA0000E6B800003A
:1054B000B44201D100F050FD2378482BDDD10134F6
:1054C000B44201D100F045FD2378452BBDD0542BCB
:1054D000D3D10134B442B5D003230193D54B72AF7D
:1054E00000932200330029003800FDF741FE3B788D
:1054F0007C68012BA6D0002BBBD12B0002222833C5
:1055000001341A7071E72B0028331B78012B01D16D
:10551000FFF7A6FB022B00D146E7B44201D100F011
:105520001EFD2378482BC3D02B00012228331A708C
:10553000FFF79AFB01373C00BE4201D100F012FD9B
:105540003B780A2BF6D00D2BF4D02B0002222F3300
:105550001A7039003200280000F0C0FD0028D2D0B7
:10556000152800D1B2E310230020EB60B24B6F612D
:105570002B61E861FEF73FF800221A702700DAE796
:10558000AE4BE8602B6104236C61EB610020FEF7F9
:1055900032F8AB4BE8602B6105236C61EB610020B6
:1055A000FEF729F8A54BE8602B6103236C61EB61E2
:1055B0000020FEF720F832002100280000F024FE31
:1055C000002801D1FEF71EF81528EBD01223002089
:1055D000EB609C4B6C612B61E861FEF70CF8984B1B
:1055E000E8602B6110236C61EB610020FEF703F88B
:1055F000954BE8602B610A236C61EB610020FDF79D
:10560000FAFF0C230020EB60904B6C612B61E8618A
:10561000FDF7F1FF0C230020EB608C4B6C612B61DC
:10562000E861FDF7E8FF2B0001222F331A701420E8
:10563000B44201D1FDF7DFFF854B6C60AB600138F0
:10564000FDF7D9FF0F230020EB60824B6C612B61CB
:10565000E861FDF7D0FF794BE8602B6102236C61B4
:10566000EB610020FDF7C7FF32002100280000F0A9
:10567000CBFD002801D1FDF7A9FF1528EBD012239F
:105680000020EB606F4B6C612B61E861FDF7B3FFAD
:105690002B0001222E331A7040232A8E13432B86AF
:1056A00032002100280000F01EFE01380428DBD85B
:1056B00005F076F802FFFFFF70E1FFFF7CE2FFFFDD
:1056C00072FFFFFF90FFFFFF0228E1D015282ED1C7
:1056D000614BE860E8612B616C610020FDF78BFF96
:1056E0002A002D3210784008184011D10423EB60B5
:1056F0005A4B6C612B61E861FDF77DFF88239B00AD
:105700001840574BC01843425841C3B2012BE7D051
:1057100032002100280000F0ADFD320021002800F9
:1057200000F067FD0128B7D0CEDC0028B8D01123E7
:105730000020EB604B4B6C612B61E861FDF75BFF78
:1057400001210B432B8601231370FEF716F902216A
:10575000F7E70421F5E7082213432B86FEF70DF93E
:105760000538032801D9FEF704F92B8E04F0FAFF5F
:10577000E8EFF1F301210B432B8601231370320074
:105780002100280000F02AFDB44200D124E3237850
:105790000A2B04D00D2B01D0FEF7F4FB0134B442E8
:1057A00000D1D7E2288E01340306A7D532002100AC
:1057B000280000F054FD002801D1FDF72CFF15282A
:1057C00000D1E6E614230020EB60274B6C612B61CF
:1057D000E861FDF710FF0221CDE70421CBE70822A5
:1057E00013432B86CBE72A002C3210780538032888
:1057F000C5D82B8E04F0B6FFBEEFF1F303230020D3
:10580000EB601A4B6C612B61E861FDF7F4FE002739
:10581000696822006F60280000F0CCFCB84201D11A
:10582000FEF7CFF81C23E8606C61EB613800FDF7F0
:10583000E2FEC04649BA000016B90000F7B4000005
:1058400036B5000011B50000BCB50000F3B500008E
:105850002162000013B600003BB6000071B50000E5
:10586000E0FDFFFF59B600004EB5000082B6000013
:105870000027696822006F60280000F09BFC01345B
:10588000B84201D1FEF79DF81C23E8606C61EB6122
:105890003800FDF7B0FE0023696822006B60280025
:1058A00000F088FC3C00002801D1FEF78AF81C2398
:1058B000E8606F61EB610020FDF79DFE01210B4365
:1058C0002B8601231370FEF7DBF80221F7E7042192
:1058D000F5E7082213432B86FEF7D2F80026696805
:1058E00022006E60280000F065FCB04201D1FEF796
:1058F0005FF92623E8606C61EB613000FDF77BFE09
:105900002B8E9B0601D4FEF76EF904230020EB607A
:10591000FC4B6C612B61E861FDF76DFE08222B8E5C
:1059200093431A0080239B0013432B86FEF7B7F99D
:1059300010232A8E13432B86FEF7CDF969682200C7
:105940006F60280000F016FC0134002801D1FEF73A
:1059500017FA3023E8606C61EB613800FDF74BFE0D
:105960000A230020EB60E84B6C612B61E861FDF7D6
:1059700042FE696822006F60280000F0BBFB00282F
:1059800001D1FEF70BFB3E23E8606C61EB61380050
:10599000FDF731FE696822006F60280000F0AAFB65
:1059A000002801D1FEF720FB3F23E8606C61EB612A
:1059B0003800FDF720FE09230020EB60D34B6C611B
:1059C0002B61E861FDF717FE09230020EB60D04B47
:1059D0006C612B61E861FDF70EFE09230020EB608E
:1059E000CC4B6C612B61E861FDF705FE002769680F
:1059F00022006F60280000F07DFBB84201D1FEF765
:105A00004BFC4A23E8606C61EB613800FDF7F3FD65
:105A10000027696822006F60280000F06BFBB84225
:105A200001D1FEF7BBFA3E23E8606C61EB61380000
:105A3000FDF7E1FD0027696822006F60280000F093
:105A400059FBB84201D1FEF7CFFA3F23E8606C6101
:105A5000EB613800FDF7CFFD0027696822006F6019
:105A6000280000F047FBB84201D1FEF715FC4A239D
:105A7000E8606C61EB613800FDF7BDFD0723002095
:105A8000EB60A54B6C612B61E861FDF7B4FD00276D
:105A9000696822006F60280000F02CFBB84201D139
:105AA000FEF77CFA3E23E8606C61EB613800FDF79D
:105AB000A2FD0027696822006F60280000F01AFB31
:105AC000B84201D1FEF790FA3F23E8606C61EB61C8
:105AD0003800FDF790FD0027696822006F602800FC
:105AE00000F008FBB84201D1FEF7D6FB4A23E8607C
:105AF0006C61EB613800FDF77EFD07230020EB6051
:105B0000864B6C612B61E861FDF775FD00276968C4
:105B100022006F60280000F0EDFAB84201D1FEF7D4
:105B20003DFA3E23E8606C61EB613800FDF763FDF0
:105B30000027696822006F60280000F0DBFAB84295
:105B400001D1FEF751FA3F23E8606C61EB61380048
:105B5000FDF751FD0027696822006F60280000F002
:105B6000C9FAB84201D1FEF797FB4A23E8606C619D
:105B7000EB613800FDF73FFD0027696822006F6088
:105B8000280000F0B7FAB84201D1FEF707FA3E2329
:105B9000E8606C61EB613800FDF72DFD0027696856
:105BA00022006F60280000F0A5FAB84201D1FEF78C
